:1000000012C01FC01EC01DC01CC01BC01AC019C01A
:1000100018C017C016C015C014C013C012C011C03C
:1000200010C00FC00EC011241FBECFEDCDBF20E009
:10003000A0E6B0E001C01D92A436B207E1F750D3AC
:10004000BCC3DECFB89AB99ABA9AC098C198C29880
:1000500087E893E10197F1F700C000000895C29A84
:1000600008952F923F924F925F926F927F928F925C
:100070009F92AF92BF92CF92DF92EF92FF920F9337
:100080001F93CF93DF93CDB7DD27C451CDBF298711
:100090003A874B87652E562E472E382E292EAC8652
:1000A000BD86CE86DF86E88AF98A0A8B1B8BB89AD2
:1000B0000C851D850150110921E030E040E050E041
:1000C00060E070E080E090E00DD329833A834B83B9
:1000D0005C836D837E838F83988799249394B0E0AB
:1000E0001C861C8AF0E0E0E0712C812C292D3B2F2E
:1000F0004C855C896F2F7E2F872D982DA980BA8023
:10010000CB80DC80ED80FE800F81188504D309F060
:10011000A0F5298529213A853B234B858C854823E9
:100120005C8956216F2F65217E2F7421872D8321B5
:10013000982D9221A0E0C19AF7D211F0C09A01C087
:10014000C098A6E0AA95F1F700C0C19886E08A950C
:10015000F1F700C0292D3B2F4C855C896F2F7E2F36
:10016000872D982D01E0BED2922EB32F4C875C8B49
:10017000F62FE72F782E892EB9CFC098ADE0AA953B
:10018000F1F70000CC5ECDBFDF91CF911F910F91B1
:10019000FF90EF90DF90CF90BF90AF909F908F90A7
:1001A0007F906F905F904F903F902F900895B898F8
:1001B000C09A2FEF3FEF80E090E041E050E0C19A1D
:1001C00066E06A95F1F700C0C1982E30310558F409
:1001D000B09B09C0BA01022E02C0660F771F0A94B5
:1001E000E2F7862B972B66E06A95F1F700C02F5F48
:1001F0003F4F2F30310519F7C098B89A2DE02A9556
:10020000F1F700000895AF92BF92CF92DF92EF9284
:10021000FF920F931F9316DF81E2A82EB12CC12C01
:10022000D12CE12CF12C00E010E020E538E443E48F
:100230005DE460E070E080E090E013DF1F910F91DB
:10024000FF90EF90DF90CF90BF90AF90089507CFD1
:10025000AF92BF92CF92DF92EF92FF920F931F93D4
:1002600086E0A82EB12CC12CD12CE12CF12C00E081
:1002700010E020E030E040E050E060E070E080E03E
:1002800090E0EFDE90E1A92E20E030E040E050E089
:1002900060E070E080E090E0E4DE80E090E8909341
:1002A0006100809360001F910F91FF90EF90DF90AD
:1002B000CF90BF90AF900895AF92BF92CF92DF9250
:1002C000EF92FF920F931F9386E0A82EB12CC12CC2
:1002D000D12CE12CF12C00E010E026E130E040E0F0
:1002E00050E060E070E080E090E0BBDE10926100E2
:1002F000109260001F910F91FF90EF90DF90CF90D0
:10030000BF90AF900895AF92BF92CF92DF92EF92DD
:10031000FF920F931F9386E0A82EB12CC12CD12CF5
:10032000E12CF12C00E010E026E030E040E050E06D
:1003300060E070E080E090E094DE80916000909159
:100340006100019690936100809360001F910F916E
:10035000FF90EF90DF90CF90BF90AF9008950F93F4
:100360001F93CF93DF93209160003091610082173B
:10037000930721F1EC0197FF04C037FD04C068DF4B
:1003800002C037FD99DF8091600090916100C8172D
:10039000D90728F4D7FF02C05BDF01C08DDF809151
:1003A000600090916100C81BD90B00E010E00C17B1
:1003B0001D0721F0A8DF0F5F1F4FF9CFDF91CF910D
:1003C0001F910F910895AF92BF92CF92DF92EF925B
:1003D000FF920F931F93CF93DF93D82FC62F86E002
:1003E000A82EB12CC12CD12CE12CF12C00E010E076
:1003F00022E030E040E050E060E070E080E090E03B
:1004000030DE2D2F30E040E050E060E070E080E032
:1004100090E008E067D12C2B01E064D1E0E1AE2E42
:1004200000E01FDEDF91CF911F910F91FF90EF90C1
:10043000DF90CF90BF90AF900895AF92BF92CF92D0
:10044000DF92EF92FF920F931F9386E0A82EB12CBC
:10045000C12CD12CE12CF12C00E010E024E030E0A4
:1004600040E050E060E070E080E090E0FADD1F9155
:100470000F91FF90EF90DF90CF90BF90AF9097CE0D
:10048000AF92BF92CF92DF92EF92FF920F931F93A2
:1004900086E0A82EB12CC12CD12CE12CF12C00E04F
:1004A00010E028E030E040E050E060E070E080E004
:1004B00090E0D7DD2FE788E391E021508040904025
:1004C000E1F700C000001F910F91FF90EF90DF90C7
:1004D000CF90BF90AF900895CF93DF9300D0CDB76A
:1004E000DD27E62FF0E0BF01782BCB012A8349837B
:1004F00036DF2A81622F4981842F65DFCE5FCDBF31
:10050000DF91CF91BDCFAF92BF92CF92DF92EF92AA
:10051000FF920F931F939CDE86E0A82EB12CC12C76
:10052000D12CE12CF12C00E010E029E030E040E09B
:1005300050E060E070E080E090E093DD87E893E1D8
:100540000197F1F700C000001F910F91FF90EF900D
:10055000DF90CF90BF90AF90089512B881E889B92D
:10056000599886E083B988E18AB908955D9BFECFEA
:100570008CB908958F929F92AF92BF92CF92DF92E3
:10058000EF92FF920F931F93CF93DF93CDB7DD27A9
:10059000C850CDBF6C0140E150E0BE016F5F7F4F9E
:1005A000CFD084E4E3DF8E010F5F1F4F7E0189E02F
:1005B000E80EF11CF80181918F01D8DF0E151F059F
:1005C000C9F782E4D3DF00E110E0812C90E8992E96
:1005D000A12CB12CE12CF12CD501C4018C219D2141
:1005E000AE21BF21892B8A2B8B2B11F480E301C014
:1005F00081E3BCDFB694A7949794879401501109C6
:1006000059F78DE0B3DF8AE0B1DFC85FCDBFDF917E
:10061000CF911F910F91FF90EF90DF90CF90BF90FF
:10062000AF909F908F9008955F9BFECF8CB10895FF
:10063000CF93DF9300D0CDB7DD27EE24E394F12CE8
:10064000F3DF813589F02CF4823441F0853491F068
:10065000F7CF823551F18735A9F0F2CFD4DDF09292
:100660006300E092620035C0F2DD109263001092E8
:1006700062002FC08091620090916300892B49F144
:1006800042DF27C0D1DF182FCFDF8A83CDDF8983F8
:10069000CBDF209162003091630049816A81232B76
:1006A000C1F0282F812F18DF14C0BEDF182FBCDF48
:1006B000282F8091620090916300892B69F0822F2E
:1006C00090E0912B4CDEB9DE182F892F4FDF812F60
:1006D0004DDF82E54BDFB4CF80E048DF80E0F8CF2C
:1006E0003CDFA6DF0F93083090F0982F872F762FEE
:1006F000652F542F432F322F22270850F4CF220F7B
:10070000331F441F551F661F771F881F991F0A95A7
:10071000B2F70F9108952A153B054C055D056E054E
:100720007F058007910708950024A7FD00942A17EC
:100730003005400550056005700580059005089559
:100740004532510518F4423008F004C0FB01108214
:10075000CB010895BB274A3031F4992322F4BDE23E
:10076000909581959F4F01C0BB27FB015527AA2774
:10077000880F991FAA1FA41710F0A41B839550512E
:10078000B9F7A05DAA3308F0A95DA193009779F7A6
:10079000B111B1931192CB0100C0DC01FC01672FB4
:1007A00071917723E1F7329704C07C916D93708348
:0E07B0006291AE17BF07C8F30895F894FFCF0B
:00000001FF
